:1000000006308A00882E0000D41631102010202AD5
:100010002D1920102010D4163300431D25266410FE
:100020002010431D252664102010431D2526640042
:10003000541D252664102010541D25266410201000
:10004000541D252664004C308400831300080319D6
:1000500037280130F800F701F70B2C28F80B2B2874
:100060004A30F700F70B32283528800B2928080082
:10007000003083168500860083120910831609104C
:1000800089100911FF3086008312891400000915B8
:1000900000000608D20009110C30F700F70B4E28BB
:1000A0005128000000308316860083125208F800A1
:1000B0007808D200D21B3E28501C09105018091491
:1000C0000000891000000911510886000000091580
:1000D000692809110C30F700F70B6C286F28000015
:1000E000080018308316850000308600831209113D
:1000F000891009100F30CC002320BE013E08023CBD
:10010000031C8B28D0013830D10038200530CC00BA
:100110002320BE0A7E28D0010C30D1003820D00127
:100120000630D1003820D0010130D1003820D00174
:100130000230D10038208A110A12A42E8E30F70026
:100140003F08F8003E08F900FA01F808031DB2283C
:100150007908F800F9010830F702F808031DB22801
:10016000F701BA280310F81BB928F90DF80DF703A9
:10017000B228F81308004B0803192B29D3004F08A5
:1001800003192B29D3070318CC287F30D302031C73
:100190002B2903192B29D0288130D30703182B29A9
:1001A0005308F700F801F901FA014C08D700D717F6
:1001B0004D08D6004E08D5001830D300D401551C88
:1001C000F9285208FA07031CEB28F90A031DEB284B
:1001D000F80A0319D4175108F907031CF228F80A82
:1001E0000319D4175008CD00CD174D08F807031890
:1001F000D417D40DF80CF90CFA0CD70CD60CD50C7E
:100200000310D30BDE280130F70703182B29F81B46
:100210001029D70DFA0DF90DF80DF70303192B2945
:10022000D71F2129FA0A031D2129F90A031D2129B3
:10023000F80A031D2129F80CF90CFA0CF70A031926
:100240002B294C08D4005008D406D41F2929F817AC
:100250002F29F8132F29F701F801F901FA010800F5
:1002600042080319F529CE0046080319F529CE02E4
:10027000031C3F297F30CE070318F529452981301B
:10028000CE02031CF5290319F5294E08F700F801E1
:10029000F901FA01CD014308CC00CC174408CB008A
:1002A0004508CA001930CE004908CA020318682957
:1002B0000130CB0203186829CC0203186829CD024B
:1002C00003186829CD0ACC0ACB0A4908CA079A291B
:1002D0004808CB02031883290130CC020318832974
:1002E000CD0203188329CD0ACC0A4808CB07490858
:1002F000CA07031C9A29CB0A031D9A29CC0A031D9D
:100300009A29CD0A9A2947088038CC0203189929DE
:100310000130CD0203189929CD0A47088038CC074F
:100320004808CB07031C7729CC0A031D7729CD0A7F
:1003300077297A14CE0B9D29A8290310CA0DCB0D5D
:10034000CC0DCD0D0310FA0DF90DF80DCF0D54297C
:100350004F1CB0290310F80CF90CFA0CCF0CB32980
:10036000F7030319F529CF1BDC290310CA0DCB0DA8
:10037000CC0DCD0D4908CA020318C8290130CB02A3
:100380000318C829CC020318C829CD02031CEB2985
:100390004808CB020318D3290130CC020318D32913
:1003A000CD02031CEB2947088038CC020318DC2956
:1003B0000130CD02031CEB29FA0A031DEB29F90ACF
:1003C000031DEB29F80A031DEB29F70A0319F52988
:1003D000F80CF90CFA0C4308CE004708CE06CE1FE5
:1003E000F329F817F929F813F929F701F801F901A8
:1003F000FA0108008E30F7003E08F7023F08F900C6
:100400004008F800F917F7080319112A0310F90832
:10041000031D0D2AF8080319112AF90CF80CF70B23
:10042000062ABF1F182AF809F909F80A0319F90A58
:1004300008004D0B1C2A1F2A4030CE00202ACE0176
:1004400001304C02CE074E088038CF00D0014F0853
:10045000D100382008004B080C3A0319362A063A16
:1004600003193E2A023A0319442A492AD0010130CD
:10047000D10038200230CC0023204E2A0130CC009D
:100480000230CD0019224E2AD0011030D100382080
:100490004E2A0130D0004B08D10038200800C60198
:1004A0000408C5004610831B4614BF1F5F2AC517EA
:1004B000451EC50ABE09BF09BE0A0319BF0A3F0E81
:1004C000F038C100C107E23EC200323EC4003F081E
:1004D0000F39C207C207C407E93EC300C307C307F9
:1004E0003E0E0F39C307C407C30DC40DC409C40DA4
:1004F0003E080F39C407C10D0730C0000A30C407D9
:10050000C303031C7F2AC307C203031C832AC20739
:10051000C103031C872AC107C003031C8B2A403078
:100520008400831307304505451384034505031DE7
:10053000A02A451A840A451AA02A2030F700BD2AAD
:10054000840744300402031945170008F700031D0F
:10055000B12A451BB12A451ACB2AC519B12A203028
:10056000BC2AC51FB92A2D30F70084034513C513D3
:10057000BD2AC51545123030F707BF010408BE007B
:100580003F10831B3F147708CB002B223E088400CA
:1005900083133F188317840A451FA12A08000B08FC
:1005A000BF008B13831603178C170C140000000078
:1005B00083120313BF1B8B170318062B03170C089A
:1005C0007F390313BF0003170D080313C00003177F
:1005D0000F080313C1003F08CB002B22400803176C
:1005E0008D000313410803178F0003130B08C2008B
:1005F0008B13831603178C170C1400000000831252
:100600000313C21B8B17BE0B062B252B03170C0DD8
:100610000E0D7F390313BF0003170D080313C0002D
:1006200003170F080313C1003F08CB002B2240081B
:1006300003178D000313410803178F008D0A031958
:100640008F0A03100313BE0BCF2A080083182B2B2D
:10065000533084008313F701F801F901FA01D30143
:10066000D401D501D6015208510450044F04031996
:10067000692B2030D7000310CB0DCC0DCD0DCE0D46
:10068000D30DD40DD50DD60D52085602031D522B95
:1006900051085502031D522B50085402031D522BC2
:1006A0004F085302031C632B4F08D3025008031C4E
:1006B000500FD4025108031C510FD5025208031CDD
:1006C000520FD6020314F70DF80DF90DFA0DD70BE2
:1006D0003B2B53088000840A54088000840A550884
:1006E0008000840A5608800008000408C3004208FD
:1006F000C5000319942B4108CE004008CD003F08E7
:10070000CC003E08CB00D201D1012030D000823095
:10071000CF00BB207A08C1007908C0007808BF006C
:100720007708BE00C50B7B2B4108CE004008CD00EA
:100730003F08CC003E08CB004B08B63CCB00FA018A
:100740004C08CF00CC170310CC0CCD0CCE0CFA0CFF
:10075000F90CF80CF70CCB0BA32BCF1FBA2BF70916
:10076000F809F909FA09F70A0319F80A0319F90A45
:100770000319FA0A7A08C1007908C0007808BF0096
:100780007708BE00C11FD12BC303C316BE09BF0922
:10079000C009C109BE0A0319BF0A0319C00A031917
:1007A000C10A3B30CA009A30C900CA30C800C7012C
:1007B0000A30C50042080319C30A83143E3084007E
:1007C00083134108CE004008CD003F08CC003E080E
:1007D000CB004A08D2004908D1004808D000470899
:1007E000CF0026237808F708031D092C420A45028A
:1007F0000319092C430803190B2C0F39450203195F
:10080000032C03183B2CC31B3B2C431B0B2C20300D
:10081000372C2030C305C31E192CC3124208031DF8
:10082000C3037708C3002D30CB002B224308F70009
:10083000C30142084502031D272C7708C3002E3050
:10084000CB002B224308F7002030C30500303030A6
:10085000C31E372CC3124208031DC3037708C3000D
:100860002D30CB002B224308F700C3013030F707AF
:100870007708CB002B2283104A08CE004908CD0010
:100880004808CC004708CB00D201D101D0010A3082
:10089000CF0026237A08CA007908C9007808C80062
:1008A0007708C700C50BDD2B08000030F8001F08D3
:1008B000C73978049F000630F700F70B5D2C000065
:1008C0001F151F19612C83161E088312A6001E080F
:1008D000A7002708BF002608BE009E20CE01CD013C
:1008E0002030CC008130CB007A08D2007908D100CA
:1008F0007808D0007708CF00BB207A08C1007908BB
:10090000C0007808BF007708BE007A08C5007908E3
:10091000C4007808C3007708C200C901C801C70134
:100920008930C60030217A08AF007908AE00780817
:10093000AD007708AC002F08CE002E08CD002D08A2
:10094000CC002C08CB00D201D1014830D00085303A
:10095000CF00BB207A08C1007908C0007808BF002A
:100960007708BE00FA217908B9007808B800083085
:10097000F8001F08C73978049F000630F700F70B0E
:10098000BF2C00001F151F19C32C83161E088312CD
:10099000A8001E08A9002908BF002808BE009E2044
:1009A000CE01CD012030CC008130CB007A08D200BE
:1009B0007908D1007808D0007708CF00BB207A08EA
:1009C000C1007908C0007808BF007708BE007A0827
:1009D000C5007908C4007808C3007708C200C901BF
:1009E000C801C7018930C60030217A08B3007908F0
:1009F000B2007808B1007708B0003308CE003208A2
:100A0000CD003108CC003008CB00D201D1014830F4
:100A1000D0008530CF00BB207A08C1007908C00023
:100A20007808BF007708BE00FA217908BB00780873
:100A3000BA001030F8001F08C73978049F0006304C
:100A4000F700F70B212D00001F151F19252D831608
:100A50001E088312AA001E08AB002B08BF002A083C
:100A6000BE009E20CE01CD012030CC008130CB00D5
:100A70007A08D2007908D1007808D0007708CF0032
:100A8000BB207A08C1007908C0007808BF00770849
:100A9000BE007A08C5007908C4007808C30077084A
:100AA000C200C901C801C7018930C60030217A08D7
:100AB000B7007908B6007808B5007708B4003708A1
:100AC000CE003608CD003508CC003408CB00D2016A
:100AD000D1014830D0008530CF00BB207A08C1005A
:100AE0007908C0007808BF007708BE00FA217908AD
:100AF000BD007808BC000330CC000130CD001922C5
:100B0000043003178D0000308F0003130B08BE0064
:100B10008B13831603178C170C140000000083122C
:100B20000313BE1B8B1703170C087F390319D82D2D
:100B30000313BE0003170D080313BF0003170F08AC
:100B40000313C0003E08CB002B223F0803178D0083
:100B50000313400803178F0003130B08C1008B1306
:100B6000831603178C170C14000000008312031364
:100B7000C11B8B1703170C0D0E0D7F390319D82DD0
:100B80000313BE0003170D080313BF0003170F085C
:100B90000313C0003E08CB002B223F0803178D0033
:100BA0000313400803178F008D0A03198F0A852D40
:100BB00001300313CC000230CD0019224330CB00AA
:100BC0002B223A30CB002B22103084002708BF00A4
:100BD0002608BE004F220F3003178D0000308F0013
:100BE000031405300313BE00CF22103084002908FF
:100BF000BF002808BE004F22133003178D000030BD
:100C00008F00031405300313BE00CF221030840080
:100C10002B08BF002A08BE004F221530CC0001303F
:100C2000CD0019225630CB002B223A30CB002B229C
:100C3000893084002F08C1002E08C0002D08BF0095
:100C40002C08BE000230C20075232030CB002B22BE
:100C50005630CB002B223A30CB002B228930840037
:100C60003308C1003208C0003108BF003008BE00A0
:100C70000230C20075232030CB002B225630CB002F
:100C80002B223A30CB002B22893084003708C10058
:100C90003608C0003508BF003408BE000230C2006C
:100CA00075231530CC000230CD0019225430CB0012
:100CB0002B223A30CB002B22103084003908BF00A1
:100CC0003808BE004F221A3003178D0000308F0005
:100CD000031405300313BE00CF22103084003B08FC
:100CE000BF003A08BE004F221E3003178D000030AF
:100CF0008F00031405300313BE00CF221030840090
:100D00003D08BF003C08BE004F228A110A12A52EE2
:100D100003081F39830083161F149F141F159F118A
:100D200007309C0083138312A001A10183161F10BA
:100D30009F101F159F111F1383121F179F178316D4
:100D40009F1783121F147128552C6430CC00232068
:040D5000A42E63006A
:02400E00713F00
:00000001FF
;PIC16F877A
;CRC=AD9E  CREATED="13-abr.-21 12:49"
