:1000000004308A007B2C00000A108A100A11820733
:1000100028340C34013406340A108A100A1182077D
:100020002B343D34303459342D343334323431347C
:100030002A343634353434342F3439343834373480
:10004000452649254110552741104F28C3244F27E5
:100050000000B116D4346E3A6F00B416C330F03AD3
:10006000633469376F00B216C133F5300001B5163D
:10007000453C7039E5396F00B616C1366539E9314E
:1000800061376F00B316D43200000C005039653868
:1000900061396137E437203A6937F43700010C00E1
:1000A0000C00D222D424D22220264110C222C22403
:1000B000C42000010C000C00D334723BE9326E32D4
:1000C0006F10E133F53000010C000C00D222D42473
:1000D000D22220264110C222C224C42000010C00DA
:1000E0000C005039653861396137E437203A6500D2
:1000F0000C000C00D222D424D22220264110C2228D
:10010000C224C42000010C000C005039653861394C
:100110006137E437A0316138F531E834EE3700015A
:100120000C000C00D222D424D22220264110C2225C
:10013000C224C42000010C000C005039653861391C
:100140006137E437A0327838F232F33700010C001F
:100150000C00D222D424D22220264110C222C22452
:10016000C42000010C000C0050396538613961373A
:10017000E437A030ED32F234E330EE3700010C000A
:100180000C00D222D424D22220264110C222C22422
:10019000C42000010C0028308400831300080319D8
:1001A000DF280130F800F701F70BD428F80BD3282B
:1001B0004A30F700F70BDA28DD28800BD128080039
:1001C0002D0EF039F7000F30060577048600000089
:1001D0000614EA28061008008610F0308316860000
:1001E000831206150000061400000608060E0F39DB
:1001F000AD0006100000061400000608060E0F39B8
:10020000AC00061000308316860083122D0EF70016
:10021000F030F70577082C04F8007808AC00AC1B28
:10022000ED282A1C86102A188614000006110000EA
:1002300006102B0EAC000F30AC052C08AD00E020F2
:100240002B080F39AC00AD00E02008000030831609
:10025000860083128610061106100F30A800CB20EE
:100260000130A2002208033C031C3E290330AD00EC
:10027000E0200530A800CB20A20A32290230AD00D0
:10028000E020A2012208033C031C4F29220804207D
:10029000A300AA012308AB00EC20A20A42298A117C
:1002A0000A12882CA201831681130F3086001030A9
:1002B0008312A300A6012608033C031C9B290130DE
:1002C000A400A7012708033C031C942923088600E7
:1002D0008609000006080F39A5002508F038FF3A06
:1002E000A50024082502031D90291430A800CB2066
:1002F000260DF700F70DFC30F705770827070C20CF
:10030000F800A20024082502031D8F2964000608B6
:100310000F39A5002508F038FF3AA5008229942955
:100320000310A40DA70A6229A208031D9B2903102C
:10033000A30DA60A5B298316811783122208F800F1
:100340008A110A12892C01302802FC3E0318B529B3
:10035000043EBD298030A900B529C030A900B529C7
:100360009430A900B529D430A90001302702A9078B
:10037000AA012908AB00EC2008000A148A100A110F
:100380008207AA29AD29B029B32926080C3A0319F6
:10039000D029063A0319DA29023A0319E129E62994
:1003A000AA010130AB00EC200130A0000230A8000F
:1003B000CB20EB29A00A0130A7002008A800A32128
:1003C000EB29AA011030AB00EC20EB290130AA0088
:1003D0002608AB00EC2008000B08A3008B13831643
:1003E00003178C170C140000000083120313A31BC7
:1003F0008B1703170C087F390319402A0313A30036
:1004000003170D080313A40003170F080313A50017
:100410002308A600C521240803178D00031325080F
:1004200003178F0003130B08A6008B138316031703
:100430008C170C140000000083120313A61B8B17EB
:1004400003170C0D0E0D7F390319402A0313A30067
:1004500003170D080313A40003170F080313A500C7
:100460002308A600C521240803178D0003132508BF
:1004700003178F008D0A03198F0A0313EC29031742
:10048000031308000330A7000130A800A321203087
:1004900003178D0000308F000313EC210130A700FB
:1004A0000230A800A321293003178D0000308F00EF
:1004B0000313EC210A30A7000230A800A3212D303D
:1004C00003178D0000308F000313EC211530A700B7
:1004D0000130A800A321333003178D0000308F00B6
:1004E0000313EC211E30A7000130A800A3213730F0
:1004F00003178D0000308F000313EC211E30A7007E
:100500000230A800A3213C3003178D0000308F007B
:100510000313EC211530A7000230A800A3214230BC
:1005200003178D0000308F000313EC2108004530C5
:1005300003178D0000308F000313EC21A201220865
:10054000093C031CC32A0330A7000230A800A321E2
:10055000463003178D0000308F000313EC21C830A4
:10056000A800CB200330A7000230A800A3214F3001
:1005700003178D0000308F000313EC21C830A80052
:10058000CB20A20A9F2A503003178D0000308F0025
:100590000313EC210330A7000230A800A32151303F
:1005A00003178D0000308F000313EC210430A300EB
:1005B000FA30A800CB20A30BD82A5A3003178D009D
:1005C00000308F000313EC2142228A110A12962C6C
:1005D0005B3003178D0000308F000313EC21A20164
:1005E0002208093C031C142B0330A7000230A8008A
:1005F000A3215C3003178D0000308F000313EC2122
:10060000C830A800CB200330A7000230A800A321E7
:10061000643003178D0000308F000313EC21C830C5
:10062000A800CB20A20AF02A653003178D00003005
:100630008F000313EC210330A7000230A800A32190
:10064000663003178D0000308F000313EC21043057
:10065000A300FA30A800CB20A30B292B6F3003177F
:100660008D0000308F000313EC2142228A110A1200
:100670009A2C703003178D0000308F000313EC218B
:10068000A2012208093C031C652B0330A70002309D
:10069000A800A321713003178D0000308F000313D1
:1006A000EC21C830A800CB200330A7000230A800FE
:1006B000A321783003178D0000308F000313EC2145
:1006C000C830A800CB20A20A412B793003178D0037
:1006D00000308F000313EC210330A7000230A80084
:1006E000A3217A3003178D0000308F000313EC2113
:1006F0000430A300FA30A800CB20A30B7A2B833060
:1007000003178D0000308F000313EC2142228A1161
:100710000A129E2C843003178D0000308F000313C3
:10072000EC21A2012208093C031CB62B0130A700D2
:100730000230A800A321853003178D0000308F0000
:100740000313EC21C830A800CB200130A7000230F1
:10075000A800A321903003178D0000308F000313F1
:10076000EC21C830A800CB20A20A922B91300317AD
:100770008D0000308F000313EC210330A7000230FE
:10078000A800A321923003178D0000308F000313BF
:10079000EC210430A300FA30A800CB20A30BCB2B14
:1007A0009B3003178D0000308F000313EC21422291
:1007B0008A110A12A22C9C3003178D0000308F0082
:1007C0000313EC21A2012208093C031C052C023072
:1007D000A700A800A3219D3003178D0000308F00D3
:1007E0000313EC21C830A800CB200230A700A800DA
:1007F000A321A73003178D0000308F000313EC21D5
:10080000C830A800CB20A20AE32BA83003178D0024
:1008100000308F000313EC210330A7000230A80042
:10082000A321A93003178D0000308F000313EC21A2
:100830000430A300FA30A800CB20A30B1A2CB2304E
:1008400003178D0000308F000313EC2142228A1120
:100850000A12A62CB33003178D0000308F0003134B
:10086000EC21A2012208093C031C562C0130A700F0
:100870000230A800A321B43003178D0000308F0090
:100880000313EC21C830A800CB200130A7000230B0
:10089000A800A321BF3003178D0000308F00031381
:1008A000EC21C830A800CB20A20A322CC03003179C
:1008B0008D0000308F000313EC210330A7000230BD
:1008C000A800A321C13003178D0000308F0003134F
:1008D000EC210430A300FA30A800CB20A30B6B2C32
:1008E000CA3003178D0000308F000313EC21422221
:1008F0008A110A12AA2C03081F39830083161F14B9
:100900009F141F159F1107309C0083138312262903
:1009100052297808A100A1080319AA2C2108303C0B
:10092000031942222108313C0319972A2108323C3D
:100930000319E82A2108333C0319392B2108343CD8
:1009400003198A2B2108353C0319DB2B2108363C7F
:0809500003192A2C882C630016
:02400E00793FF8
:00000001FF
;PIC16F877A
;CRC=D8D1  CREATED="06-abr.-21 11:40"
