:1000000000308A0019280000233084008313000880
:10001000031918280130F800F701F70B0D28F80B29
:100020000C284A30F700F70B13281628800B0A28F3
:10003000080003081F398300A001FF30A1008316C8
:100040001F149F141F159F1107309C00831300304D
:1000500087008312A1008701A0012008043C031C33
:100060001229A0012008013C031C54280030A100E3
:10007000831687010F30831287000430A200FA3004
:10008000A3000420A20B3F280030A10083168701A3
:10009000F030831287000430A200FA30A30004205D
:1000A000A20B4D28A00A3228A0012008013C031C05
:1000B00077280030A10083168701CC308312870097
:1000C0000430A200FA30A3000420A20B6228003002
:1000D000A100831687013330831287000430A20009
:1000E000FA30A3000420A20B7028A00A5528A00112
:1000F0002008013C031CEE280030A1008316870174
:100100000130831287000430A200FA30A3000420DB
:10011000A20B85280030A1008316870103308312CB
:1001200087000430A200FA30A3000420A20B932819
:100130000030A10083168701073083128700043046
:10014000A200FA30A3000420A20BA1280030A100D5
:10015000831687010F30831287000430A200FA3023
:10016000A3000420A20BAF280030A1008316870152
:100170001F30831287000430A200FA30A30004204D
:10018000A20BBD280030A100831687013F308312E7
:1001900087000430A200FA30A3000420A20BCB2871
:1001A0000030A100831687017F308312870004305E
:1001B000A200FA30A3000420A20BD9280030A1002D
:1001C00083168701FF30831287000430A200FA30C3
:1001D000A3000420A20BE728A00A7828A001200889
:1001E000013C031C10290030A100831687018312F3
:1001F00087010430A200FA30A3000420A20BFB28E0
:100200000030A10083168701FF308312870004307D
:10021000A200FA30A3000420A20B0929A00AEF28AB
:08022000A00A2D282C28630020
:02400E00723FFF
:00000001FF
;PIC16F877A
;CRC=80F7  CREATED="24-feb.-21 14:56"
