:1000000000308A00F42800002330840083130008A5
:10001000031918280130F800F701F70B0D28F80B29
:100020000C284A30F700F70B13281628800B0A28F3
:100030000800831686015530831286002008A3002D
:10004000042083168601AA30831286002008A300AC
:1000500004208A110A121029831686018312860150
:100060002008A300042083168601FF308312860037
:100070002008A30004208A110A1218298316860179
:100080008130831286002008A30004208316860195
:10009000C330831286002008A30004208316860143
:1000A000E730831286002008A3000420831686010F
:1000B000FF30831286002008A300042083168601E7
:1000C000E730831286002008A300042083168601EF
:1000D000C330831286002008A30004208316860103
:1000E0008130831286002008A30004208A110A129E
:1000F0002029831686018030831286002008A30001
:100100000420831686014030831286002008A30055
:100110000420831686012030831286002008A30065
:100120000420831686011030831286002008A30065
:100130000420831686010830831286002008A3005D
:100140000420831686010430831286002008A30051
:100150000420831686010230831286002008A30043
:100160000420831686010130831286002008A30034
:100170000420831686010230831286002008A30023
:100180000420831686010430831286002008A30011
:100190000420831686010830831286002008A300FD
:1001A0000420831686011030831286002008A300E5
:1001B0000420831686012030831286002008A300C5
:1001C0000420831686014030831286002008A30095
:1001D0000420831686018030831286002008A30045
:1001E00004208A110A12282903081F398300E830E5
:1001F000A000A10183161F149F141F159F11073023
:100200009C008313061083120610A1012108043CF0
:10021000031C3429A1012108023C031C12291928BE
:10022000A10A0B29A1012108023C031C1A292C2830
:10023000A10A1329A1012108023C031C22293E28FE
:10024000A10A1B29A1012108023C031C2A297928A3
:10025000A10A232906101430A200FA30A3000420BA
:0C026000A20B2D29A10A06290529630024
:02400E00713F00
:00000001FF
;PIC16F877A
;CRC=B7DD  CREATED="31-mar.-21 15:17"
