:1000000000308A0019280000223084008313000881
:10001000031918280130F800F701F70B0D28F80B29
:100020000C284A30F700F70B13281628800B0A28F3
:10003000080003081F398300A001FF30A1008316C8
:100040001F149F141F159F1107309C00831300304D
:100050008800831288018316051583120519362836
:10006000831605158312051D3028A00A01302002D1
:10007000FB3E0318CD28053ECF280030A100831693
:1000800087010F30831287006430A2000420003003
:10009000A10083168701F030831287006430A2002C
:1000A0000420CD280030A10083168701CC308312B4
:1000B00087006430A20004200030A100831687016D
:1000C0003330831287006430A2000420CD28003032
:1000D000A100831687010130831287006430A200DB
:1000E00004200030A10083168701033083128700AB
:1000F0006430A20004200030A1008316870107307D
:10010000831287006430A20004200030A10083160F
:1001100087010F30831287006430A2000420003072
:10012000A100831687011F30831287006430A2006C
:1001300004200030A100831687013F30831287001E
:100140006430A20004200030A100831687017F30B4
:10015000831287006430A20004200030A1008316BF
:100160008701FF30831287006430A2000420CD286D
:100170000030A10083168701831287016430A2003A
:1001800004200030A10083168701FF30831287000E
:100190006430A2000420CD28A0012B2863000A109F
:1001A0008A100A1182073D2852286728B828CC28CF
:02400E00723FFF
:00000001FF
;PIC16F877A
;CRC=0ADF  CREATED="04-mar.-21 19:15"
