:1000000001308A00DA290000D332E33A6537E3345D
:10001000611031100000D332E33A6537E3346110E8
:1000200032100001D332E33A6537E3346110331004
:100030000001D332E33A6537E33461103410000035
:100040003108F8013002031828283008F700342856
:10005000F7010830B200B00DF70D31087702031830
:10006000F700F80DB20B2B28080020302B1E303083
:10007000AC002A08F700AA1F4528F709F70A7708F5
:10008000AA002D30AC00AB172B142A08B000643046
:10009000B10020207708AA0030307807AD002A0888
:1000A000B0000A30B100202030307707AF00303088
:1000B0007807AE002C08F70030302D0203196428B1
:1000C000AB14AB1B2B1578282C08AD002030AC00EE
:1000D00030302E02031970282B14AB1BAB14782878
:1000E000031D2B14031D78282D08AE002030AD0011
:1000F0002B197F28AB1883282B1887288B282C08CE
:100100000C1E802899002D080C1E842899002E08AA
:100110000C1E882899002F080C1E8C2899008A1123
:100120000A12102A0B08AA008B13831603178C17C8
:100130000C140000000083120313AA1B8B17031773
:100140000C087F390319E8280313AA0003170D08C8
:100150000313AB0003170F080313AC002A080C1E8F
:10016000AF2899002B0803178D0003132C080317E1
:100170008F0003130B08AD008B13831603178C1726
:100180000C140000000083120313AD1B8B17031720
:100190000C0D0E0D7F390319E8280313AA0003176D
:1001A0000D080313AB0003170F080313AC002A0854
:1001B0000C1ED82899002B0803178D0003132C0858
:1001C00003178F008D0A03198F0A03139228031750
:1001D000031308002A308400831300080319FE2843
:1001E0000130F800F701F70BF328F80BF2284A303A
:1001F000F700F70BF928FC28800BF028080083167D
:1002000086015530831286002808AA00EA2083164A
:100210008601AA30831286002808AA00EA208A11E3
:100220000A121E2A83168601831286012808AA0054
:10023000EA2083168601FF30831286002808AA0070
:10024000EA208A110A122B2A831686018130831232
:1002500086002808AA00EA2083168601C33083128C
:1002600086002808AA00EA2083168601E730831258
:1002700086002808AA00EA2083168601FF30831230
:1002800086002808AA00EA2083168601E730831238
:1002900086002808AA00EA2083168601C33083124C
:1002A00086002808AA00EA2083168601813083127E
:1002B00086002808AA00EA208A110A12382A831622
:1002C00086018030831286002808AA00EA2083165F
:1002D00086014030831286002808AA00EA2083168F
:1002E00086012030831286002808AA00EA2083169F
:1002F00086011030831286002808AA00EA2083169F
:1003000086010830831286002808AA00EA20831696
:1003100086010430831286002808AA00EA2083168A
:1003200086010230831286002808AA00EA2083167C
:1003300086010130831286002808AA00EA2083166D
:1003400086010230831286002808AA00EA2083165C
:1003500086010430831286002808AA00EA2083164A
:1003600086010830831286002808AA00EA20831636
:1003700086011030831286002808AA00EA2083161E
:1003800086012030831286002808AA00EA208316FE
:1003900086014030831286002808AA00EA208316CE
:1003A00086018030831286002808AA00EA208A117C
:1003B0000A12452A03081F39830019308316990051
:1003C000A6309800903083129800A701A6016430EF
:1003D000A800A90183161F149F141F159F11073031
:1003E0009C0083138312A001A101061006100030A7
:1003F000831686008312860183168514831285185E
:10040000142A831685148312851C012AA90A203018
:100410000C1E082A99002908AA001830AB003528BC
:1004200020300C1E112A9900290B1F2A04300317B3
:100430008D0000308F0003139220FF284A2A2908DC
:10044000023C031D2C2A0B3003178D0000308F0057
:100450000313922012294A2A2908033C031D392A32
:10046000123003178D0000308F00031392202429CF
:100470004A2A2908043C031D462A193003178D0017
:1004800000308F00031392205F294A2A2908053C77
:080490000319A901FC29630016
:02400E00723FFF
:00000001FF
;PIC16F877A
;CRC=BC91  CREATED="04-mar.-21 19:15"
