:1000000001308A007F29000048344F344C34413499
:100010002034443449344534473455344934543415
:100020004F3420343C34333400340C002830840006
:100030008313000803192A280130F800F701F70B91
:100040001F28F80B1E284A30F700F70B2528282810
:10005000800B1C2808002E0EF039F7000F30080521
:1000600077048800000008143528081008000808E4
:10007000F700080E0F39F8000800831608108810E2
:100080000811831288100F3083160805F038880095
:100090008312081500000814000037207808AE000D
:1000A000081000000814000037207808AD00081080
:1000B0000F3083160805880083122E0EF700F030EB
:1000C000F70577082D04F8007808AD00AD1B43282C
:1000D0002B1C88102B188814000008110000081031
:1000E0002C0EAD000F30AD052D08AE002B202C08D6
:1000F0000F39AD00AE002B2008002830A4000C30D2
:10010000A5000130A6000630A700081088100811CD
:100110000F308316080588000810881008110F306A
:100120008312A80016200130A3002308033C031CFF
:10013000A1280330AE002B200530A8001620A30A0A
:1001400095280230AE002B200530A8001620A30110
:100150002308033C031CB82824302307840083139E
:100160000008A800AB012808AC003D20A30AA8287D
:100170008A110A129029280BBE28C1284030A900F4
:10018000C228A90101302702A90729088038AA003E
:10019000AB012A08AC003D2008002608073A0319E5
:1001A000DB280B3A0319E028063A0319E828023A3B
:1001B0000319EE28F3280130A700A800BB20F82877
:1001C000AB010130AC003D200230A8001620F82819
:1001D0000130A7000230A800BB20F828AB01103086
:1001E000AC003D20F8280130AB002608AC003D20D3
:1001F00008000B08A3008B13831603178C170C142D
:100200000000000083120313A31B8B1703178C0835
:10021000031923290D080313A30003170F08031361
:10022000A40003170C080313A600CD20230803170E
:100230008D000313240803178F008D0A03198F0AFA
:100240000313F928031703138A110A129C290B08B8
:10025000A3008B13831603178C170C1400000000E7
:1002600083120313A31B8B1703170C087F39031981
:100270007B290313A30003170D080313A40003171E
:100280000F080313A5002308A600CD202408031798
:100290008D000313250803178F0003130B08A60016
:1002A0008B13831603178C170C14000000008312A5
:1002B0000313A61B8B1703170C0D0E0D7F390319A3
:1002C0007B290313A30003170D080313A4000317CE
:1002D0000F080313A5002308A600CD202408031748
:1002E0008D000313250803178F008D0A03198F0A49
:1002F00003132729031703138A110A12B5290308C8
:100300001F39830083161F149F141F159F11073078
:100310009C00831301308312A1001030A2007D28BD
:100320002208A7002108A800BB20043003178D0075
:1003300000308F000313F9286430A8001620A203B0
:100340002208803A633C031CAE291030A200A10AA7
:100350002108023C0318AE290130A1001530031713
:0E0360008D0000308F000313272990296300C1
:02400E00793FF8
:00000001FF
;PIC16F877A
;CRC=7EEC  CREATED="11-mar.-21 11:22"
